{
  "_format": "hh-sol-artifact-1",
  "contractName": "LuckyLotteryNFT",
  "sourceName": "contracts/LuckyLotteryNFT.sol",
  "abi": [
    {
      "inputs": [],
      "stateMutability": "nonpayable",
      "type": "constructor"
    },
    {
      "anonymous": false,
      "inputs": [
        {
          "indexed": true,
          "internalType": "address",
          "name": "owner",
          "type": "address"
        },
        {
          "indexed": true,
          "internalType": "address",
          "name": "approved",
          "type": "address"
        },
        {
          "indexed": true,
          "internalType": "uint256",
          "name": "tokenId",
          "type": "uint256"
        }
      ],
      "name": "Approval",
      "type": "event"
    },
    {
      "anonymous": false,
      "inputs": [
        {
          "indexed": true,
          "internalType": "address",
          "name": "owner",
          "type": "address"
        },
        {
          "indexed": true,
          "internalType": "address",
          "name": "operator",
          "type": "address"
        },
        {
          "indexed": false,
          "internalType": "bool",
          "name": "approved",
          "type": "bool"
        }
      ],
      "name": "ApprovalForAll",
      "type": "event"
    },
    {
      "anonymous": false,
      "inputs": [
        {
          "indexed": true,
          "internalType": "address",
          "name": "from",
          "type": "address"
        },
        {
          "indexed": true,
          "internalType": "address",
          "name": "to",
          "type": "address"
        },
        {
          "indexed": true,
          "internalType": "uint256",
          "name": "tokenId",
          "type": "uint256"
        }
      ],
      "name": "Transfer",
      "type": "event"
    },
    {
      "inputs": [
        {
          "internalType": "address",
          "name": "to",
          "type": "address"
        },
        {
          "internalType": "uint256",
          "name": "tokenId",
          "type": "uint256"
        }
      ],
      "name": "approve",
      "outputs": [],
      "stateMutability": "nonpayable",
      "type": "function"
    },
    {
      "inputs": [
        {
          "internalType": "address",
          "name": "owner",
          "type": "address"
        }
      ],
      "name": "balanceOf",
      "outputs": [
        {
          "internalType": "uint256",
          "name": "",
          "type": "uint256"
        }
      ],
      "stateMutability": "view",
      "type": "function"
    },
    {
      "inputs": [
        {
          "internalType": "uint256",
          "name": "tokenId",
          "type": "uint256"
        }
      ],
      "name": "getApproved",
      "outputs": [
        {
          "internalType": "address",
          "name": "",
          "type": "address"
        }
      ],
      "stateMutability": "view",
      "type": "function"
    },
    {
      "inputs": [
        {
          "internalType": "address",
          "name": "owner",
          "type": "address"
        },
        {
          "internalType": "address",
          "name": "operator",
          "type": "address"
        }
      ],
      "name": "isApprovedForAll",
      "outputs": [
        {
          "internalType": "bool",
          "name": "",
          "type": "bool"
        }
      ],
      "stateMutability": "view",
      "type": "function"
    },
    {
      "inputs": [
        {
          "internalType": "address",
          "name": "_to",
          "type": "address"
        },
        {
          "internalType": "string",
          "name": "_tokenURI",
          "type": "string"
        }
      ],
      "name": "mint",
      "outputs": [
        {
          "internalType": "bool",
          "name": "",
          "type": "bool"
        }
      ],
      "stateMutability": "nonpayable",
      "type": "function"
    },
    {
      "inputs": [],
      "name": "name",
      "outputs": [
        {
          "internalType": "string",
          "name": "",
          "type": "string"
        }
      ],
      "stateMutability": "view",
      "type": "function"
    },
    {
      "inputs": [],
      "name": "owner",
      "outputs": [
        {
          "internalType": "address",
          "name": "",
          "type": "address"
        }
      ],
      "stateMutability": "view",
      "type": "function"
    },
    {
      "inputs": [
        {
          "internalType": "uint256",
          "name": "tokenId",
          "type": "uint256"
        }
      ],
      "name": "ownerOf",
      "outputs": [
        {
          "internalType": "address",
          "name": "",
          "type": "address"
        }
      ],
      "stateMutability": "view",
      "type": "function"
    },
    {
      "inputs": [
        {
          "internalType": "address",
          "name": "from",
          "type": "address"
        },
        {
          "internalType": "address",
          "name": "to",
          "type": "address"
        },
        {
          "internalType": "uint256",
          "name": "tokenId",
          "type": "uint256"
        }
      ],
      "name": "safeTransferFrom",
      "outputs": [],
      "stateMutability": "nonpayable",
      "type": "function"
    },
    {
      "inputs": [
        {
          "internalType": "address",
          "name": "from",
          "type": "address"
        },
        {
          "internalType": "address",
          "name": "to",
          "type": "address"
        },
        {
          "internalType": "uint256",
          "name": "tokenId",
          "type": "uint256"
        },
        {
          "internalType": "bytes",
          "name": "_data",
          "type": "bytes"
        }
      ],
      "name": "safeTransferFrom",
      "outputs": [],
      "stateMutability": "nonpayable",
      "type": "function"
    },
    {
      "inputs": [
        {
          "internalType": "address",
          "name": "operator",
          "type": "address"
        },
        {
          "internalType": "bool",
          "name": "approved",
          "type": "bool"
        }
      ],
      "name": "setApprovalForAll",
      "outputs": [],
      "stateMutability": "nonpayable",
      "type": "function"
    },
    {
      "inputs": [
        {
          "internalType": "bytes4",
          "name": "interfaceId",
          "type": "bytes4"
        }
      ],
      "name": "supportsInterface",
      "outputs": [
        {
          "internalType": "bool",
          "name": "",
          "type": "bool"
        }
      ],
      "stateMutability": "view",
      "type": "function"
    },
    {
      "inputs": [],
      "name": "symbol",
      "outputs": [
        {
          "internalType": "string",
          "name": "",
          "type": "string"
        }
      ],
      "stateMutability": "view",
      "type": "function"
    },
    {
      "inputs": [
        {
          "internalType": "uint256",
          "name": "tokenId",
          "type": "uint256"
        }
      ],
      "name": "tokenURI",
      "outputs": [
        {
          "internalType": "string",
          "name": "",
          "type": "string"
        }
      ],
      "stateMutability": "view",
      "type": "function"
    },
    {
      "inputs": [
        {
          "internalType": "address",
          "name": "from",
          "type": "address"
        },
        {
          "internalType": "address",
          "name": "to",
          "type": "address"
        },
        {
          "internalType": "uint256",
          "name": "tokenId",
          "type": "uint256"
        }
      ],
      "name": "transferFrom",
      "outputs": [],
      "stateMutability": "nonpayable",
      "type": "function"
    }
  ],
  "bytecode": "0x60806040523480156200001157600080fd5b506040518060400160405280601281526020017f4861636b6572486f7573654c6f747465727900000000000000000000000000008152506040518060400160405280600381526020017f48484c0000000000000000000000000000000000000000000000000000000000815250816000908051906020019062000096929190620000f9565b508060019080519060200190620000af929190620000f9565b50505033600860006101000a81548173ffffffffffffffffffffffffffffffffffffffff021916908373ffffffffffffffffffffffffffffffffffffffff1602179055506200020e565b8280546200010790620001a9565b90600052602060002090601f0160209004810192826200012b576000855562000177565b82601f106200014657805160ff191683800117855562000177565b8280016001018555821562000177579182015b828111156200017657825182559160200191906001019062000159565b5b5090506200018691906200018a565b5090565b5b80821115620001a55760008160009055506001016200018b565b5090565b60006002820490506001821680620001c257607f821691505b60208210811415620001d957620001d8620001df565b5b50919050565b7f4e487b7100000000000000000000000000000000000000000000000000000000600052602260045260246000fd5b612c77806200021e6000396000f3fe608060405234801561001057600080fd5b50600436106100f55760003560e01c806370a0823111610097578063b88d4fde11610066578063b88d4fde14610284578063c87b56dd146102a0578063d0def521146102d0578063e985e9c514610300576100f5565b806370a08231146101fc5780638da5cb5b1461022c57806395d89b411461024a578063a22cb46514610268576100f5565b8063095ea7b3116100d3578063095ea7b31461017857806323b872dd1461019457806342842e0e146101b05780636352211e146101cc576100f5565b806301ffc9a7146100fa57806306fdde031461012a578063081812fc14610148575b600080fd5b610114600480360381019061010f9190611cb8565b610330565b60405161012191906120e1565b60405180910390f35b610132610412565b60405161013f91906120fc565b60405180910390f35b610162600480360381019061015d9190611d0a565b6104a4565b60405161016f919061207a565b60405180910390f35b610192600480360381019061018d9190611c7c565b610529565b005b6101ae60048036038101906101a99190611b22565b610641565b005b6101ca60048036038101906101c59190611b22565b6106a1565b005b6101e660048036038101906101e19190611d0a565b6106c1565b6040516101f3919061207a565b60405180910390f35b61021660048036038101906102119190611abd565b610773565b604051610223919061233e565b60405180910390f35b61023461082b565b604051610241919061207a565b60405180910390f35b610252610851565b60405161025f91906120fc565b60405180910390f35b610282600480360381019061027d9190611bec565b6108e3565b005b61029e60048036038101906102999190611b71565b6108f9565b005b6102ba60048036038101906102b59190611d0a565b61095b565b6040516102c791906120fc565b60405180910390f35b6102ea60048036038101906102e59190611c28565b610aad565b6040516102f791906120e1565b60405180910390f35b61031a60048036038101906103159190611ae6565b610b33565b60405161032791906120e1565b60405180910390f35b60007f80ac58cd000000000000000000000000000000000000000000000000000000007bffffffffffffffffffffffffffffffffffffffffffffffffffffffff1916827bffffffffffffffffffffffffffffffffffffffffffffffffffffffff191614806103fb57507f5b5e139f000000000000000000000000000000000000000000000000000000007bffffffffffffffffffffffffffffffffffffffffffffffffffffffff1916827bffffffffffffffffffffffffffffffffffffffffffffffffffffffff1916145b8061040b575061040a82610bc7565b5b9050919050565b60606000805461042190612594565b80601f016020809104026020016040519081016040528092919081815260200182805461044d90612594565b801561049a5780601f1061046f5761010080835404028352916020019161049a565b820191906000526020600020905b81548152906001019060200180831161047d57829003601f168201915b5050505050905090565b60006104af82610c31565b6104ee576040517f08c379a00000000000000000000000000000000000000000000000000000000081526004016104e59061227e565b60405180910390fd5b6004600083815260200190815260200160002060009054906101000a900473ffffffffffffffffffffffffffffffffffffffff169050919050565b6000610534826106c1565b90508073ffffffffffffffffffffffffffffffffffffffff168373ffffffffffffffffffffffffffffffffffffffff1614156105a5576040517f08c379a000000000000000000000000000000000000000000000000000000000815260040161059c906122fe565b60405180910390fd5b8073ffffffffffffffffffffffffffffffffffffffff166105c4610c9d565b73ffffffffffffffffffffffffffffffffffffffff1614806105f357506105f2816105ed610c9d565b610b33565b5b610632576040517f08c379a0000000000000000000000000000000000000000000000000000000008152600401610629906121be565b60405180910390fd5b61063c8383610ca5565b505050565b61065261064c610c9d565b82610d5e565b610691576040517f08c379a00000000000000000000000000000000000000000000000000000000081526004016106889061231e565b60405180910390fd5b61069c838383610e3c565b505050565b6106bc838383604051806020016040528060008152506108f9565b505050565b6000806002600084815260200190815260200160002060009054906101000a900473ffffffffffffffffffffffffffffffffffffffff169050600073ffffffffffffffffffffffffffffffffffffffff168173ffffffffffffffffffffffffffffffffffffffff16141561076a576040517f08c379a0000000000000000000000000000000000000000000000000000000008152600401610761906121fe565b60405180910390fd5b80915050919050565b60008073ffffffffffffffffffffffffffffffffffffffff168273ffffffffffffffffffffffffffffffffffffffff1614156107e4576040517f08c379a00000000000000000000000000000000000000000000000000000000081526004016107db906121de565b60405180910390fd5b600360008373ffffffffffffffffffffffffffffffffffffffff1673ffffffffffffffffffffffffffffffffffffffff168152602001908152602001600020549050919050565b600860009054906101000a900473ffffffffffffffffffffffffffffffffffffffff1681565b60606001805461086090612594565b80601f016020809104026020016040519081016040528092919081815260200182805461088c90612594565b80156108d95780601f106108ae576101008083540402835291602001916108d9565b820191906000526020600020905b8154815290600101906020018083116108bc57829003601f168201915b5050505050905090565b6108f56108ee610c9d565b8383611098565b5050565b61090a610904610c9d565b83610d5e565b610949576040517f08c379a00000000000000000000000000000000000000000000000000000000081526004016109409061231e565b60405180910390fd5b61095584848484611205565b50505050565b606061096682610c31565b6109a5576040517f08c379a000000000000000000000000000000000000000000000000000000000815260040161099c9061225e565b60405180910390fd5b60006006600084815260200190815260200160002080546109c590612594565b80601f01602080910402602001604051908101604052809291908181526020018280546109f190612594565b8015610a3e5780601f10610a1357610100808354040283529160200191610a3e565b820191906000526020600020905b815481529060010190602001808311610a2157829003601f168201915b505050505090506000610a4f611261565b9050600081511415610a65578192505050610aa8565b600082511115610a9a578082604051602001610a82929190612056565b60405160208183030381529060405292505050610aa8565b610aa384611278565b925050505b919050565b6000612710610abc600761131f565b10610afc576040517f08c379a0000000000000000000000000000000000000000000000000000000008152600401610af3906122de565b60405180910390fd5b610b06600761132d565b6000610b12600761131f565b9050610b1e8482611343565b610b288184611511565b600191505092915050565b6000600560008473ffffffffffffffffffffffffffffffffffffffff1673ffffffffffffffffffffffffffffffffffffffff16815260200190815260200160002060008373ffffffffffffffffffffffffffffffffffffffff1673ffffffffffffffffffffffffffffffffffffffff16815260200190815260200160002060009054906101000a900460ff16905092915050565b60007f01ffc9a7000000000000000000000000000000000000000000000000000000007bffffffffffffffffffffffffffffffffffffffffffffffffffffffff1916827bffffffffffffffffffffffffffffffffffffffffffffffffffffffff1916149050919050565b60008073ffffffffffffffffffffffffffffffffffffffff166002600084815260200190815260200160002060009054906101000a900473ffffffffffffffffffffffffffffffffffffffff1673ffffffffffffffffffffffffffffffffffffffff1614159050919050565b600033905090565b816004600083815260200190815260200160002060006101000a81548173ffffffffffffffffffffffffffffffffffffffff021916908373ffffffffffffffffffffffffffffffffffffffff160217905550808273ffffffffffffffffffffffffffffffffffffffff16610d18836106c1565b73ffffffffffffffffffffffffffffffffffffffff167f8c5be1e5ebec7d5bd14f71427d1e84f3dd0314c0f7b2291e5b200ac8c7c3b92560405160405180910390a45050565b6000610d6982610c31565b610da8576040517f08c379a0000000000000000000000000000000000000000000000000000000008152600401610d9f9061219e565b60405180910390fd5b6000610db3836106c1565b90508073ffffffffffffffffffffffffffffffffffffffff168473ffffffffffffffffffffffffffffffffffffffff161480610e2257508373ffffffffffffffffffffffffffffffffffffffff16610e0a846104a4565b73ffffffffffffffffffffffffffffffffffffffff16145b80610e335750610e328185610b33565b5b91505092915050565b8273ffffffffffffffffffffffffffffffffffffffff16610e5c826106c1565b73ffffffffffffffffffffffffffffffffffffffff1614610eb2576040517f08c379a0000000000000000000000000000000000000000000000000000000008152600401610ea99061229e565b60405180910390fd5b600073ffffffffffffffffffffffffffffffffffffffff168273ffffffffffffffffffffffffffffffffffffffff161415610f22576040517f08c379a0000000000000000000000000000000000000000000000000000000008152600401610f199061215e565b60405180910390fd5b610f2d838383611585565b610f38600082610ca5565b6001600360008573ffffffffffffffffffffffffffffffffffffffff1673ffffffffffffffffffffffffffffffffffffffff1681526020019081526020016000206000828254610f8891906124aa565b925050819055506001600360008473ffffffffffffffffffffffffffffffffffffffff1673ffffffffffffffffffffffffffffffffffffffff1681526020019081526020016000206000828254610fdf9190612423565b92505081905550816002600083815260200190815260200160002060006101000a81548173ffffffffffffffffffffffffffffffffffffffff021916908373ffffffffffffffffffffffffffffffffffffffff160217905550808273ffffffffffffffffffffffffffffffffffffffff168473ffffffffffffffffffffffffffffffffffffffff167fddf252ad1be2c89b69c2b068fc378daa952ba7f163c4a11628f55a4df523b3ef60405160405180910390a4505050565b8173ffffffffffffffffffffffffffffffffffffffff168373ffffffffffffffffffffffffffffffffffffffff161415611107576040517f08c379a00000000000000000000000000000000000000000000000000000000081526004016110fe9061217e565b60405180910390fd5b80600560008573ffffffffffffffffffffffffffffffffffffffff1673ffffffffffffffffffffffffffffffffffffffff16815260200190815260200160002060008473ffffffffffffffffffffffffffffffffffffffff1673ffffffffffffffffffffffffffffffffffffffff16815260200190815260200160002060006101000a81548160ff0219169083151502179055508173ffffffffffffffffffffffffffffffffffffffff168373ffffffffffffffffffffffffffffffffffffffff167f17307eab39ab6107e8899845ad3d59bd9653f200f220920489ca2b5937696c31836040516111f891906120e1565b60405180910390a3505050565b611210848484610e3c565b61121c8484848461158a565b61125b576040517f08c379a00000000000000000000000000000000000000000000000000000000081526004016112529061211e565b60405180910390fd5b50505050565b606060405180602001604052806000815250905090565b606061128382610c31565b6112c2576040517f08c379a00000000000000000000000000000000000000000000000000000000081526004016112b9906122be565b60405180910390fd5b60006112cc611261565b905060008151116112ec5760405180602001604052806000815250611317565b806112f684611721565b604051602001611307929190612056565b6040516020818303038152906040525b915050919050565b600081600001549050919050565b6001816000016000828254019250508190555050565b600073ffffffffffffffffffffffffffffffffffffffff168273ffffffffffffffffffffffffffffffffffffffff1614156113b3576040517f08c379a00000000000000000000000000000000000000000000000000000000081526004016113aa9061223e565b60405180910390fd5b6113bc81610c31565b156113fc576040517f08c379a00000000000000000000000000000000000000000000000000000000081526004016113f39061213e565b60405180910390fd5b61140860008383611585565b6001600360008473ffffffffffffffffffffffffffffffffffffffff1673ffffffffffffffffffffffffffffffffffffffff16815260200190815260200160002060008282546114589190612423565b92505081905550816002600083815260200190815260200160002060006101000a81548173ffffffffffffffffffffffffffffffffffffffff021916908373ffffffffffffffffffffffffffffffffffffffff160217905550808273ffffffffffffffffffffffffffffffffffffffff16600073ffffffffffffffffffffffffffffffffffffffff167fddf252ad1be2c89b69c2b068fc378daa952ba7f163c4a11628f55a4df523b3ef60405160405180910390a45050565b61151a82610c31565b611559576040517f08c379a00000000000000000000000000000000000000000000000000000000081526004016115509061221e565b60405180910390fd5b806006600084815260200190815260200160002090805190602001906115809291906118e1565b505050565b505050565b60006115ab8473ffffffffffffffffffffffffffffffffffffffff166118ce565b15611714578373ffffffffffffffffffffffffffffffffffffffff1663150b7a026115d4610c9d565b8786866040518563ffffffff1660e01b81526004016115f69493929190612095565b602060405180830381600087803b15801561161057600080fd5b505af192505050801561164157506040513d601f19601f8201168201806040525081019061163e9190611ce1565b60015b6116c4573d8060008114611671576040519150601f19603f3d011682016040523d82523d6000602084013e611676565b606091505b506000815114156116bc576040517f08c379a00000000000000000000000000000000000000000000000000000000081526004016116b39061211e565b60405180910390fd5b805181602001fd5b63150b7a0260e01b7bffffffffffffffffffffffffffffffffffffffffffffffffffffffff1916817bffffffffffffffffffffffffffffffffffffffffffffffffffffffff191614915050611719565b600190505b949350505050565b60606000821415611769576040518060400160405280600181526020017f300000000000000000000000000000000000000000000000000000000000000081525090506118c9565b600082905060005b6000821461179b578080611784906125f7565b915050600a826117949190612479565b9150611771565b60008167ffffffffffffffff8111156117dd577f4e487b7100000000000000000000000000000000000000000000000000000000600052604160045260246000fd5b6040519080825280601f01601f19166020018201604052801561180f5781602001600182028036833780820191505090505b5090505b600085146118c25760018261182891906124aa565b9150600a856118379190612640565b60306118439190612423565b60f81b81838151811061187f577f4e487b7100000000000000000000000000000000000000000000000000000000600052603260045260246000fd5b60200101907effffffffffffffffffffffffffffffffffffffffffffffffffffffffffffff1916908160001a905350600a856118bb9190612479565b9450611813565b8093505050505b919050565b600080823b905060008111915050919050565b8280546118ed90612594565b90600052602060002090601f01602090048101928261190f5760008555611956565b82601f1061192857805160ff1916838001178555611956565b82800160010185558215611956579182015b8281111561195557825182559160200191906001019061193a565b5b5090506119639190611967565b5090565b5b80821115611980576000816000905550600101611968565b5090565b60006119976119928461237e565b612359565b9050828152602081018484840111156119af57600080fd5b6119ba848285612552565b509392505050565b60006119d56119d0846123af565b612359565b9050828152602081018484840111156119ed57600080fd5b6119f8848285612552565b509392505050565b600081359050611a0f81612be5565b92915050565b600081359050611a2481612bfc565b92915050565b600081359050611a3981612c13565b92915050565b600081519050611a4e81612c13565b92915050565b600082601f830112611a6557600080fd5b8135611a75848260208601611984565b91505092915050565b600082601f830112611a8f57600080fd5b8135611a9f8482602086016119c2565b91505092915050565b600081359050611ab781612c2a565b92915050565b600060208284031215611acf57600080fd5b6000611add84828501611a00565b91505092915050565b60008060408385031215611af957600080fd5b6000611b0785828601611a00565b9250506020611b1885828601611a00565b9150509250929050565b600080600060608486031215611b3757600080fd5b6000611b4586828701611a00565b9350506020611b5686828701611a00565b9250506040611b6786828701611aa8565b9150509250925092565b60008060008060808587031215611b8757600080fd5b6000611b9587828801611a00565b9450506020611ba687828801611a00565b9350506040611bb787828801611aa8565b925050606085013567ffffffffffffffff811115611bd457600080fd5b611be087828801611a54565b91505092959194509250565b60008060408385031215611bff57600080fd5b6000611c0d85828601611a00565b9250506020611c1e85828601611a15565b9150509250929050565b60008060408385031215611c3b57600080fd5b6000611c4985828601611a00565b925050602083013567ffffffffffffffff811115611c6657600080fd5b611c7285828601611a7e565b9150509250929050565b60008060408385031215611c8f57600080fd5b6000611c9d85828601611a00565b9250506020611cae85828601611aa8565b9150509250929050565b600060208284031215611cca57600080fd5b6000611cd884828501611a2a565b91505092915050565b600060208284031215611cf357600080fd5b6000611d0184828501611a3f565b91505092915050565b600060208284031215611d1c57600080fd5b6000611d2a84828501611aa8565b91505092915050565b611d3c816124de565b82525050565b611d4b816124f0565b82525050565b6000611d5c826123e0565b611d6681856123f6565b9350611d76818560208601612561565b611d7f8161272d565b840191505092915050565b6000611d95826123eb565b611d9f8185612407565b9350611daf818560208601612561565b611db88161272d565b840191505092915050565b6000611dce826123eb565b611dd88185612418565b9350611de8818560208601612561565b80840191505092915050565b6000611e01603283612407565b9150611e0c8261273e565b604082019050919050565b6000611e24601c83612407565b9150611e2f8261278d565b602082019050919050565b6000611e47602483612407565b9150611e52826127b6565b604082019050919050565b6000611e6a601983612407565b9150611e7582612805565b602082019050919050565b6000611e8d602c83612407565b9150611e988261282e565b604082019050919050565b6000611eb0603883612407565b9150611ebb8261287d565b604082019050919050565b6000611ed3602a83612407565b9150611ede826128cc565b604082019050919050565b6000611ef6602983612407565b9150611f018261291b565b604082019050919050565b6000611f19602e83612407565b9150611f248261296a565b604082019050919050565b6000611f3c602083612407565b9150611f47826129b9565b602082019050919050565b6000611f5f603183612407565b9150611f6a826129e2565b604082019050919050565b6000611f82602c83612407565b9150611f8d82612a31565b604082019050919050565b6000611fa5602983612407565b9150611fb082612a80565b604082019050919050565b6000611fc8602f83612407565b9150611fd382612acf565b604082019050919050565b6000611feb601a83612407565b9150611ff682612b1e565b602082019050919050565b600061200e602183612407565b915061201982612b47565b604082019050919050565b6000612031603183612407565b915061203c82612b96565b604082019050919050565b61205081612548565b82525050565b60006120628285611dc3565b915061206e8284611dc3565b91508190509392505050565b600060208201905061208f6000830184611d33565b92915050565b60006080820190506120aa6000830187611d33565b6120b76020830186611d33565b6120c46040830185612047565b81810360608301526120d68184611d51565b905095945050505050565b60006020820190506120f66000830184611d42565b92915050565b600060208201905081810360008301526121168184611d8a565b905092915050565b6000602082019050818103600083015261213781611df4565b9050919050565b6000602082019050818103600083015261215781611e17565b9050919050565b6000602082019050818103600083015261217781611e3a565b9050919050565b6000602082019050818103600083015261219781611e5d565b9050919050565b600060208201905081810360008301526121b781611e80565b9050919050565b600060208201905081810360008301526121d781611ea3565b9050919050565b600060208201905081810360008301526121f781611ec6565b9050919050565b6000602082019050818103600083015261221781611ee9565b9050919050565b6000602082019050818103600083015261223781611f0c565b9050919050565b6000602082019050818103600083015261225781611f2f565b9050919050565b6000602082019050818103600083015261227781611f52565b9050919050565b6000602082019050818103600083015261229781611f75565b9050919050565b600060208201905081810360008301526122b781611f98565b9050919050565b600060208201905081810360008301526122d781611fbb565b9050919050565b600060208201905081810360008301526122f781611fde565b9050919050565b6000602082019050818103600083015261231781612001565b9050919050565b6000602082019050818103600083015261233781612024565b9050919050565b60006020820190506123536000830184612047565b92915050565b6000612363612374565b905061236f82826125c6565b919050565b6000604051905090565b600067ffffffffffffffff821115612399576123986126fe565b5b6123a28261272d565b9050602081019050919050565b600067ffffffffffffffff8211156123ca576123c96126fe565b5b6123d38261272d565b9050602081019050919050565b600081519050919050565b600081519050919050565b600082825260208201905092915050565b600082825260208201905092915050565b600081905092915050565b600061242e82612548565b915061243983612548565b9250827fffffffffffffffffffffffffffffffffffffffffffffffffffffffffffffffff0382111561246e5761246d612671565b5b828201905092915050565b600061248482612548565b915061248f83612548565b92508261249f5761249e6126a0565b5b828204905092915050565b60006124b582612548565b91506124c083612548565b9250828210156124d3576124d2612671565b5b828203905092915050565b60006124e982612528565b9050919050565b60008115159050919050565b60007fffffffff0000000000000000000000000000000000000000000000000000000082169050919050565b600073ffffffffffffffffffffffffffffffffffffffff82169050919050565b6000819050919050565b82818337600083830152505050565b60005b8381101561257f578082015181840152602081019050612564565b8381111561258e576000848401525b50505050565b600060028204905060018216806125ac57607f821691505b602082108114156125c0576125bf6126cf565b5b50919050565b6125cf8261272d565b810181811067ffffffffffffffff821117156125ee576125ed6126fe565b5b80604052505050565b600061260282612548565b91507fffffffffffffffffffffffffffffffffffffffffffffffffffffffffffffffff82141561263557612634612671565b5b600182019050919050565b600061264b82612548565b915061265683612548565b925082612666576126656126a0565b5b828206905092915050565b7f4e487b7100000000000000000000000000000000000000000000000000000000600052601160045260246000fd5b7f4e487b7100000000000000000000000000000000000000000000000000000000600052601260045260246000fd5b7f4e487b7100000000000000000000000000000000000000000000000000000000600052602260045260246000fd5b7f4e487b7100000000000000000000000000000000000000000000000000000000600052604160045260246000fd5b6000601f19601f8301169050919050565b7f4552433732313a207472616e7366657220746f206e6f6e20455243373231526560008201527f63656976657220696d706c656d656e7465720000000000000000000000000000602082015250565b7f4552433732313a20746f6b656e20616c7265616479206d696e74656400000000600082015250565b7f4552433732313a207472616e7366657220746f20746865207a65726f2061646460008201527f7265737300000000000000000000000000000000000000000000000000000000602082015250565b7f4552433732313a20617070726f766520746f2063616c6c657200000000000000600082015250565b7f4552433732313a206f70657261746f7220717565727920666f72206e6f6e657860008201527f697374656e7420746f6b656e0000000000000000000000000000000000000000602082015250565b7f4552433732313a20617070726f76652063616c6c6572206973206e6f74206f7760008201527f6e6572206e6f7220617070726f76656420666f7220616c6c0000000000000000602082015250565b7f4552433732313a2062616c616e636520717565727920666f7220746865207a6560008201527f726f206164647265737300000000000000000000000000000000000000000000602082015250565b7f4552433732313a206f776e657220717565727920666f72206e6f6e657869737460008201527f656e7420746f6b656e0000000000000000000000000000000000000000000000602082015250565b7f45524337323155524953746f726167653a2055524920736574206f66206e6f6e60008201527f6578697374656e7420746f6b656e000000000000000000000000000000000000602082015250565b7f4552433732313a206d696e7420746f20746865207a65726f2061646472657373600082015250565b7f45524337323155524953746f726167653a2055524920717565727920666f722060008201527f6e6f6e6578697374656e7420746f6b656e000000000000000000000000000000602082015250565b7f4552433732313a20617070726f76656420717565727920666f72206e6f6e657860008201527f697374656e7420746f6b656e0000000000000000000000000000000000000000602082015250565b7f4552433732313a207472616e73666572206f6620746f6b656e2074686174206960008201527f73206e6f74206f776e0000000000000000000000000000000000000000000000602082015250565b7f4552433732314d657461646174613a2055524920717565727920666f72206e6f60008201527f6e6578697374656e7420746f6b656e0000000000000000000000000000000000602082015250565b7f4e6f204d6f7265204e4654732063616e206265206d696e746564000000000000600082015250565b7f4552433732313a20617070726f76616c20746f2063757272656e74206f776e6560008201527f7200000000000000000000000000000000000000000000000000000000000000602082015250565b7f4552433732313a207472616e736665722063616c6c6572206973206e6f74206f60008201527f776e6572206e6f7220617070726f766564000000000000000000000000000000602082015250565b612bee816124de565b8114612bf957600080fd5b50565b612c05816124f0565b8114612c1057600080fd5b50565b612c1c816124fc565b8114612c2757600080fd5b50565b612c3381612548565b8114612c3e57600080fd5b5056fea264697066735822122058a07fc667a1f0a08cce7581285bfb9eba93487a0f94f7943970d61f3471131264736f6c63430008040033",
  "linkReferences": {},
  "deployedLinkReferences": {}
}