{
  "_format": "hh-sol-artifact-1",
  "contractName": "MemoryGameNFT",
  "sourceName": "contracts/MemoryGameNFT.sol",
  "abi": [
    {
      "inputs": [],
      "stateMutability": "nonpayable",
      "type": "constructor"
    },
    {
      "anonymous": false,
      "inputs": [
        {
          "indexed": true,
          "internalType": "address",
          "name": "owner",
          "type": "address"
        },
        {
          "indexed": true,
          "internalType": "address",
          "name": "approved",
          "type": "address"
        },
        {
          "indexed": true,
          "internalType": "uint256",
          "name": "tokenId",
          "type": "uint256"
        }
      ],
      "name": "Approval",
      "type": "event"
    },
    {
      "anonymous": false,
      "inputs": [
        {
          "indexed": true,
          "internalType": "address",
          "name": "owner",
          "type": "address"
        },
        {
          "indexed": true,
          "internalType": "address",
          "name": "operator",
          "type": "address"
        },
        {
          "indexed": false,
          "internalType": "bool",
          "name": "approved",
          "type": "bool"
        }
      ],
      "name": "ApprovalForAll",
      "type": "event"
    },
    {
      "anonymous": false,
      "inputs": [
        {
          "indexed": true,
          "internalType": "address",
          "name": "from",
          "type": "address"
        },
        {
          "indexed": true,
          "internalType": "address",
          "name": "to",
          "type": "address"
        },
        {
          "indexed": true,
          "internalType": "uint256",
          "name": "tokenId",
          "type": "uint256"
        }
      ],
      "name": "Transfer",
      "type": "event"
    },
    {
      "inputs": [
        {
          "internalType": "address",
          "name": "to",
          "type": "address"
        },
        {
          "internalType": "uint256",
          "name": "tokenId",
          "type": "uint256"
        }
      ],
      "name": "approve",
      "outputs": [],
      "stateMutability": "nonpayable",
      "type": "function"
    },
    {
      "inputs": [
        {
          "internalType": "address",
          "name": "owner",
          "type": "address"
        }
      ],
      "name": "balanceOf",
      "outputs": [
        {
          "internalType": "uint256",
          "name": "",
          "type": "uint256"
        }
      ],
      "stateMutability": "view",
      "type": "function"
    },
    {
      "inputs": [
        {
          "internalType": "uint256",
          "name": "tokenId",
          "type": "uint256"
        }
      ],
      "name": "getApproved",
      "outputs": [
        {
          "internalType": "address",
          "name": "",
          "type": "address"
        }
      ],
      "stateMutability": "view",
      "type": "function"
    },
    {
      "inputs": [
        {
          "internalType": "address",
          "name": "owner",
          "type": "address"
        },
        {
          "internalType": "address",
          "name": "operator",
          "type": "address"
        }
      ],
      "name": "isApprovedForAll",
      "outputs": [
        {
          "internalType": "bool",
          "name": "",
          "type": "bool"
        }
      ],
      "stateMutability": "view",
      "type": "function"
    },
    {
      "inputs": [
        {
          "internalType": "address",
          "name": "_to",
          "type": "address"
        },
        {
          "internalType": "string",
          "name": "_tokenURI",
          "type": "string"
        }
      ],
      "name": "mint",
      "outputs": [
        {
          "internalType": "bool",
          "name": "",
          "type": "bool"
        }
      ],
      "stateMutability": "nonpayable",
      "type": "function"
    },
    {
      "inputs": [],
      "name": "name",
      "outputs": [
        {
          "internalType": "string",
          "name": "",
          "type": "string"
        }
      ],
      "stateMutability": "view",
      "type": "function"
    },
    {
      "inputs": [],
      "name": "owner",
      "outputs": [
        {
          "internalType": "address",
          "name": "",
          "type": "address"
        }
      ],
      "stateMutability": "view",
      "type": "function"
    },
    {
      "inputs": [
        {
          "internalType": "uint256",
          "name": "tokenId",
          "type": "uint256"
        }
      ],
      "name": "ownerOf",
      "outputs": [
        {
          "internalType": "address",
          "name": "",
          "type": "address"
        }
      ],
      "stateMutability": "view",
      "type": "function"
    },
    {
      "inputs": [
        {
          "internalType": "address",
          "name": "from",
          "type": "address"
        },
        {
          "internalType": "address",
          "name": "to",
          "type": "address"
        },
        {
          "internalType": "uint256",
          "name": "tokenId",
          "type": "uint256"
        }
      ],
      "name": "safeTransferFrom",
      "outputs": [],
      "stateMutability": "nonpayable",
      "type": "function"
    },
    {
      "inputs": [
        {
          "internalType": "address",
          "name": "from",
          "type": "address"
        },
        {
          "internalType": "address",
          "name": "to",
          "type": "address"
        },
        {
          "internalType": "uint256",
          "name": "tokenId",
          "type": "uint256"
        },
        {
          "internalType": "bytes",
          "name": "_data",
          "type": "bytes"
        }
      ],
      "name": "safeTransferFrom",
      "outputs": [],
      "stateMutability": "nonpayable",
      "type": "function"
    },
    {
      "inputs": [
        {
          "internalType": "address",
          "name": "operator",
          "type": "address"
        },
        {
          "internalType": "bool",
          "name": "approved",
          "type": "bool"
        }
      ],
      "name": "setApprovalForAll",
      "outputs": [],
      "stateMutability": "nonpayable",
      "type": "function"
    },
    {
      "inputs": [
        {
          "internalType": "bytes4",
          "name": "interfaceId",
          "type": "bytes4"
        }
      ],
      "name": "supportsInterface",
      "outputs": [
        {
          "internalType": "bool",
          "name": "",
          "type": "bool"
        }
      ],
      "stateMutability": "view",
      "type": "function"
    },
    {
      "inputs": [],
      "name": "symbol",
      "outputs": [
        {
          "internalType": "string",
          "name": "",
          "type": "string"
        }
      ],
      "stateMutability": "view",
      "type": "function"
    },
    {
      "inputs": [
        {
          "internalType": "address",
          "name": "owner",
          "type": "address"
        },
        {
          "internalType": "uint256",
          "name": "index",
          "type": "uint256"
        }
      ],
      "name": "tokenOfOwnerByIndex",
      "outputs": [
        {
          "internalType": "uint256",
          "name": "",
          "type": "uint256"
        }
      ],
      "stateMutability": "view",
      "type": "function"
    },
    {
      "inputs": [
        {
          "internalType": "uint256",
          "name": "tokenId",
          "type": "uint256"
        }
      ],
      "name": "tokenURI",
      "outputs": [
        {
          "internalType": "string",
          "name": "",
          "type": "string"
        }
      ],
      "stateMutability": "view",
      "type": "function"
    },
    {
      "inputs": [
        {
          "internalType": "address",
          "name": "from",
          "type": "address"
        },
        {
          "internalType": "address",
          "name": "to",
          "type": "address"
        },
        {
          "internalType": "uint256",
          "name": "tokenId",
          "type": "uint256"
        }
      ],
      "name": "transferFrom",
      "outputs": [],
      "stateMutability": "nonpayable",
      "type": "function"
    }
  ],
  "bytecode": "0x60806040523480156200001157600080fd5b506040518060400160405280600f81526020017f4861636b6572486f75736547616d6500000000000000000000000000000000008152506040518060400160405280600381526020017f4848470000000000000000000000000000000000000000000000000000000000815250816000908051906020019062000096929190620000f9565b508060019080519060200190620000af929190620000f9565b50505033600860006101000a81548173ffffffffffffffffffffffffffffffffffffffff021916908373ffffffffffffffffffffffffffffffffffffffff1602179055506200020e565b8280546200010790620001a9565b90600052602060002090601f0160209004810192826200012b576000855562000177565b82601f106200014657805160ff191683800117855562000177565b8280016001018555821562000177579182015b828111156200017657825182559160200191906001019062000159565b5b5090506200018691906200018a565b5090565b5b80821115620001a55760008160009055506001016200018b565b5090565b60006002820490506001821680620001c257607f821691505b60208210811415620001d957620001d8620001df565b5b50919050565b7f4e487b7100000000000000000000000000000000000000000000000000000000600052602260045260246000fd5b612de9806200021e6000396000f3fe608060405234801561001057600080fd5b50600436106101005760003560e01c806370a0823111610097578063b88d4fde11610066578063b88d4fde146102bf578063c87b56dd146102db578063d0def5211461030b578063e985e9c51461033b57610100565b806370a08231146102375780638da5cb5b1461026757806395d89b4114610285578063a22cb465146102a357610100565b806323b872dd116100d357806323b872dd1461019f5780632f745c59146101bb57806342842e0e146101eb5780636352211e1461020757610100565b806301ffc9a71461010557806306fdde0314610135578063081812fc14610153578063095ea7b314610183575b600080fd5b61011f600480360381019061011a9190611d98565b61036b565b60405161012c91906121e4565b60405180910390f35b61013d61044d565b60405161014a91906121ff565b60405180910390f35b61016d60048036038101906101689190611dea565b6104df565b60405161017a919061217d565b60405180910390f35b61019d60048036038101906101989190611d5c565b610564565b005b6101b960048036038101906101b49190611c02565b61067c565b005b6101d560048036038101906101d09190611d5c565b6106dc565b6040516101e29190612461565b60405180910390f35b61020560048036038101906102009190611c02565b610781565b005b610221600480360381019061021c9190611dea565b6107a1565b60405161022e919061217d565b60405180910390f35b610251600480360381019061024c9190611b9d565b610853565b60405161025e9190612461565b60405180910390f35b61026f61090b565b60405161027c919061217d565b60405180910390f35b61028d610931565b60405161029a91906121ff565b60405180910390f35b6102bd60048036038101906102b89190611ccc565b6109c3565b005b6102d960048036038101906102d49190611c51565b6109d9565b005b6102f560048036038101906102f09190611dea565b610a3b565b60405161030291906121ff565b60405180910390f35b61032560048036038101906103209190611d08565b610b8d565b60405161033291906121e4565b60405180910390f35b61035560048036038101906103509190611bc6565b610c13565b60405161036291906121e4565b60405180910390f35b60007f80ac58cd000000000000000000000000000000000000000000000000000000007bffffffffffffffffffffffffffffffffffffffffffffffffffffffff1916827bffffffffffffffffffffffffffffffffffffffffffffffffffffffff1916148061043657507f5b5e139f000000000000000000000000000000000000000000000000000000007bffffffffffffffffffffffffffffffffffffffffffffffffffffffff1916827bffffffffffffffffffffffffffffffffffffffffffffffffffffffff1916145b80610446575061044582610ca7565b5b9050919050565b60606000805461045c906126b7565b80601f0160208091040260200160405190810160405280929190818152602001828054610488906126b7565b80156104d55780601f106104aa576101008083540402835291602001916104d5565b820191906000526020600020905b8154815290600101906020018083116104b857829003601f168201915b5050505050905090565b60006104ea82610d11565b610529576040517f08c379a0000000000000000000000000000000000000000000000000000000008152600401610520906123a1565b60405180910390fd5b6004600083815260200190815260200160002060009054906101000a900473ffffffffffffffffffffffffffffffffffffffff169050919050565b600061056f826107a1565b90508073ffffffffffffffffffffffffffffffffffffffff168373ffffffffffffffffffffffffffffffffffffffff1614156105e0576040517f08c379a00000000000000000000000000000000000000000000000000000000081526004016105d790612421565b60405180910390fd5b8073ffffffffffffffffffffffffffffffffffffffff166105ff610d7d565b73ffffffffffffffffffffffffffffffffffffffff16148061062e575061062d81610628610d7d565b610c13565b5b61066d576040517f08c379a0000000000000000000000000000000000000000000000000000000008152600401610664906122e1565b60405180910390fd5b6106778383610d85565b505050565b61068d610687610d7d565b82610e3e565b6106cc576040517f08c379a00000000000000000000000000000000000000000000000000000000081526004016106c390612441565b60405180910390fd5b6106d7838383610f1c565b505050565b60006106e783610853565b8210610728576040517f08c379a000000000000000000000000000000000000000000000000000000000815260040161071f90612221565b60405180910390fd5b600960008473ffffffffffffffffffffffffffffffffffffffff1673ffffffffffffffffffffffffffffffffffffffff168152602001908152602001600020600083815260200190815260200160002054905092915050565b61079c838383604051806020016040528060008152506109d9565b505050565b6000806002600084815260200190815260200160002060009054906101000a900473ffffffffffffffffffffffffffffffffffffffff169050600073ffffffffffffffffffffffffffffffffffffffff168173ffffffffffffffffffffffffffffffffffffffff16141561084a576040517f08c379a000000000000000000000000000000000000000000000000000000000815260040161084190612321565b60405180910390fd5b80915050919050565b60008073ffffffffffffffffffffffffffffffffffffffff168273ffffffffffffffffffffffffffffffffffffffff1614156108c4576040517f08c379a00000000000000000000000000000000000000000000000000000000081526004016108bb90612301565b60405180910390fd5b600360008373ffffffffffffffffffffffffffffffffffffffff1673ffffffffffffffffffffffffffffffffffffffff168152602001908152602001600020549050919050565b600860009054906101000a900473ffffffffffffffffffffffffffffffffffffffff1681565b606060018054610940906126b7565b80601f016020809104026020016040519081016040528092919081815260200182805461096c906126b7565b80156109b95780601f1061098e576101008083540402835291602001916109b9565b820191906000526020600020905b81548152906001019060200180831161099c57829003601f168201915b5050505050905090565b6109d56109ce610d7d565b8383611178565b5050565b6109ea6109e4610d7d565b83610e3e565b610a29576040517f08c379a0000000000000000000000000000000000000000000000000000000008152600401610a2090612441565b60405180910390fd5b610a35848484846112e5565b50505050565b6060610a4682610d11565b610a85576040517f08c379a0000000000000000000000000000000000000000000000000000000008152600401610a7c90612381565b60405180910390fd5b6000600660008481526020019081526020016000208054610aa5906126b7565b80601f0160208091040260200160405190810160405280929190818152602001828054610ad1906126b7565b8015610b1e5780601f10610af357610100808354040283529160200191610b1e565b820191906000526020600020905b815481529060010190602001808311610b0157829003601f168201915b505050505090506000610b2f611341565b9050600081511415610b45578192505050610b88565b600082511115610b7a578082604051602001610b62929190612159565b60405160208183030381529060405292505050610b88565b610b8384611358565b925050505b919050565b6000612710610b9c60076113ff565b10610bdc576040517f08c379a0000000000000000000000000000000000000000000000000000000008152600401610bd390612401565b60405180910390fd5b610be6600761140d565b6000610bf260076113ff565b9050610bfe8482611423565b610c0881846115f1565b600191505092915050565b6000600560008473ffffffffffffffffffffffffffffffffffffffff1673ffffffffffffffffffffffffffffffffffffffff16815260200190815260200160002060008373ffffffffffffffffffffffffffffffffffffffff1673ffffffffffffffffffffffffffffffffffffffff16815260200190815260200160002060009054906101000a900460ff16905092915050565b60007f01ffc9a7000000000000000000000000000000000000000000000000000000007bffffffffffffffffffffffffffffffffffffffffffffffffffffffff1916827bffffffffffffffffffffffffffffffffffffffffffffffffffffffff1916149050919050565b60008073ffffffffffffffffffffffffffffffffffffffff166002600084815260200190815260200160002060009054906101000a900473ffffffffffffffffffffffffffffffffffffffff1673ffffffffffffffffffffffffffffffffffffffff1614159050919050565b600033905090565b816004600083815260200190815260200160002060006101000a81548173ffffffffffffffffffffffffffffffffffffffff021916908373ffffffffffffffffffffffffffffffffffffffff160217905550808273ffffffffffffffffffffffffffffffffffffffff16610df8836107a1565b73ffffffffffffffffffffffffffffffffffffffff167f8c5be1e5ebec7d5bd14f71427d1e84f3dd0314c0f7b2291e5b200ac8c7c3b92560405160405180910390a45050565b6000610e4982610d11565b610e88576040517f08c379a0000000000000000000000000000000000000000000000000000000008152600401610e7f906122c1565b60405180910390fd5b6000610e93836107a1565b90508073ffffffffffffffffffffffffffffffffffffffff168473ffffffffffffffffffffffffffffffffffffffff161480610f0257508373ffffffffffffffffffffffffffffffffffffffff16610eea846104df565b73ffffffffffffffffffffffffffffffffffffffff16145b80610f135750610f128185610c13565b5b91505092915050565b8273ffffffffffffffffffffffffffffffffffffffff16610f3c826107a1565b73ffffffffffffffffffffffffffffffffffffffff1614610f92576040517f08c379a0000000000000000000000000000000000000000000000000000000008152600401610f89906123c1565b60405180910390fd5b600073ffffffffffffffffffffffffffffffffffffffff168273ffffffffffffffffffffffffffffffffffffffff161415611002576040517f08c379a0000000000000000000000000000000000000000000000000000000008152600401610ff990612281565b60405180910390fd5b61100d838383611665565b611018600082610d85565b6001600360008573ffffffffffffffffffffffffffffffffffffffff1673ffffffffffffffffffffffffffffffffffffffff168152602001908152602001600020600082825461106891906125cd565b925050819055506001600360008473ffffffffffffffffffffffffffffffffffffffff1673ffffffffffffffffffffffffffffffffffffffff16815260200190815260200160002060008282546110bf9190612546565b92505081905550816002600083815260200190815260200160002060006101000a81548173ffffffffffffffffffffffffffffffffffffffff021916908373ffffffffffffffffffffffffffffffffffffffff160217905550808273ffffffffffffffffffffffffffffffffffffffff168473ffffffffffffffffffffffffffffffffffffffff167fddf252ad1be2c89b69c2b068fc378daa952ba7f163c4a11628f55a4df523b3ef60405160405180910390a4505050565b8173ffffffffffffffffffffffffffffffffffffffff168373ffffffffffffffffffffffffffffffffffffffff1614156111e7576040517f08c379a00000000000000000000000000000000000000000000000000000000081526004016111de906122a1565b60405180910390fd5b80600560008573ffffffffffffffffffffffffffffffffffffffff1673ffffffffffffffffffffffffffffffffffffffff16815260200190815260200160002060008473ffffffffffffffffffffffffffffffffffffffff1673ffffffffffffffffffffffffffffffffffffffff16815260200190815260200160002060006101000a81548160ff0219169083151502179055508173ffffffffffffffffffffffffffffffffffffffff168373ffffffffffffffffffffffffffffffffffffffff167f17307eab39ab6107e8899845ad3d59bd9653f200f220920489ca2b5937696c31836040516112d891906121e4565b60405180910390a3505050565b6112f0848484610f1c565b6112fc8484848461166a565b61133b576040517f08c379a000000000000000000000000000000000000000000000000000000000815260040161133290612241565b60405180910390fd5b50505050565b606060405180602001604052806000815250905090565b606061136382610d11565b6113a2576040517f08c379a0000000000000000000000000000000000000000000000000000000008152600401611399906123e1565b60405180910390fd5b60006113ac611341565b905060008151116113cc57604051806020016040528060008152506113f7565b806113d684611801565b6040516020016113e7929190612159565b6040516020818303038152906040525b915050919050565b600081600001549050919050565b6001816000016000828254019250508190555050565b600073ffffffffffffffffffffffffffffffffffffffff168273ffffffffffffffffffffffffffffffffffffffff161415611493576040517f08c379a000000000000000000000000000000000000000000000000000000000815260040161148a90612361565b60405180910390fd5b61149c81610d11565b156114dc576040517f08c379a00000000000000000000000000000000000000000000000000000000081526004016114d390612261565b60405180910390fd5b6114e860008383611665565b6001600360008473ffffffffffffffffffffffffffffffffffffffff1673ffffffffffffffffffffffffffffffffffffffff16815260200190815260200160002060008282546115389190612546565b92505081905550816002600083815260200190815260200160002060006101000a81548173ffffffffffffffffffffffffffffffffffffffff021916908373ffffffffffffffffffffffffffffffffffffffff160217905550808273ffffffffffffffffffffffffffffffffffffffff16600073ffffffffffffffffffffffffffffffffffffffff167fddf252ad1be2c89b69c2b068fc378daa952ba7f163c4a11628f55a4df523b3ef60405160405180910390a45050565b6115fa82610d11565b611639576040517f08c379a000000000000000000000000000000000000000000000000000000000815260040161163090612341565b60405180910390fd5b806006600084815260200190815260200160002090805190602001906116609291906119c1565b505050565b505050565b600061168b8473ffffffffffffffffffffffffffffffffffffffff166119ae565b156117f4578373ffffffffffffffffffffffffffffffffffffffff1663150b7a026116b4610d7d565b8786866040518563ffffffff1660e01b81526004016116d69493929190612198565b602060405180830381600087803b1580156116f057600080fd5b505af192505050801561172157506040513d601f19601f8201168201806040525081019061171e9190611dc1565b60015b6117a4573d8060008114611751576040519150601f19603f3d011682016040523d82523d6000602084013e611756565b606091505b5060008151141561179c576040517f08c379a000000000000000000000000000000000000000000000000000000000815260040161179390612241565b60405180910390fd5b805181602001fd5b63150b7a0260e01b7bffffffffffffffffffffffffffffffffffffffffffffffffffffffff1916817bffffffffffffffffffffffffffffffffffffffffffffffffffffffff1916149150506117f9565b600190505b949350505050565b60606000821415611849576040518060400160405280600181526020017f300000000000000000000000000000000000000000000000000000000000000081525090506119a9565b600082905060005b6000821461187b5780806118649061271a565b915050600a82611874919061259c565b9150611851565b60008167ffffffffffffffff8111156118bd577f4e487b7100000000000000000000000000000000000000000000000000000000600052604160045260246000fd5b6040519080825280601f01601f1916602001820160405280156118ef5781602001600182028036833780820191505090505b5090505b600085146119a25760018261190891906125cd565b9150600a856119179190612763565b60306119239190612546565b60f81b81838151811061195f577f4e487b7100000000000000000000000000000000000000000000000000000000600052603260045260246000fd5b60200101907effffffffffffffffffffffffffffffffffffffffffffffffffffffffffffff1916908160001a905350600a8561199b919061259c565b94506118f3565b8093505050505b919050565b600080823b905060008111915050919050565b8280546119cd906126b7565b90600052602060002090601f0160209004810192826119ef5760008555611a36565b82601f10611a0857805160ff1916838001178555611a36565b82800160010185558215611a36579182015b82811115611a35578251825591602001919060010190611a1a565b5b509050611a439190611a47565b5090565b5b80821115611a60576000816000905550600101611a48565b5090565b6000611a77611a72846124a1565b61247c565b905082815260208101848484011115611a8f57600080fd5b611a9a848285612675565b509392505050565b6000611ab5611ab0846124d2565b61247c565b905082815260208101848484011115611acd57600080fd5b611ad8848285612675565b509392505050565b600081359050611aef81612d57565b92915050565b600081359050611b0481612d6e565b92915050565b600081359050611b1981612d85565b92915050565b600081519050611b2e81612d85565b92915050565b600082601f830112611b4557600080fd5b8135611b55848260208601611a64565b91505092915050565b600082601f830112611b6f57600080fd5b8135611b7f848260208601611aa2565b91505092915050565b600081359050611b9781612d9c565b92915050565b600060208284031215611baf57600080fd5b6000611bbd84828501611ae0565b91505092915050565b60008060408385031215611bd957600080fd5b6000611be785828601611ae0565b9250506020611bf885828601611ae0565b9150509250929050565b600080600060608486031215611c1757600080fd5b6000611c2586828701611ae0565b9350506020611c3686828701611ae0565b9250506040611c4786828701611b88565b9150509250925092565b60008060008060808587031215611c6757600080fd5b6000611c7587828801611ae0565b9450506020611c8687828801611ae0565b9350506040611c9787828801611b88565b925050606085013567ffffffffffffffff811115611cb457600080fd5b611cc087828801611b34565b91505092959194509250565b60008060408385031215611cdf57600080fd5b6000611ced85828601611ae0565b9250506020611cfe85828601611af5565b9150509250929050565b60008060408385031215611d1b57600080fd5b6000611d2985828601611ae0565b925050602083013567ffffffffffffffff811115611d4657600080fd5b611d5285828601611b5e565b9150509250929050565b60008060408385031215611d6f57600080fd5b6000611d7d85828601611ae0565b9250506020611d8e85828601611b88565b9150509250929050565b600060208284031215611daa57600080fd5b6000611db884828501611b0a565b91505092915050565b600060208284031215611dd357600080fd5b6000611de184828501611b1f565b91505092915050565b600060208284031215611dfc57600080fd5b6000611e0a84828501611b88565b91505092915050565b611e1c81612601565b82525050565b611e2b81612613565b82525050565b6000611e3c82612503565b611e468185612519565b9350611e56818560208601612684565b611e5f81612850565b840191505092915050565b6000611e758261250e565b611e7f818561252a565b9350611e8f818560208601612684565b611e9881612850565b840191505092915050565b6000611eae8261250e565b611eb8818561253b565b9350611ec8818560208601612684565b80840191505092915050565b6000611ee1602b8361252a565b9150611eec82612861565b604082019050919050565b6000611f0460328361252a565b9150611f0f826128b0565b604082019050919050565b6000611f27601c8361252a565b9150611f32826128ff565b602082019050919050565b6000611f4a60248361252a565b9150611f5582612928565b604082019050919050565b6000611f6d60198361252a565b9150611f7882612977565b602082019050919050565b6000611f90602c8361252a565b9150611f9b826129a0565b604082019050919050565b6000611fb360388361252a565b9150611fbe826129ef565b604082019050919050565b6000611fd6602a8361252a565b9150611fe182612a3e565b604082019050919050565b6000611ff960298361252a565b915061200482612a8d565b604082019050919050565b600061201c602e8361252a565b915061202782612adc565b604082019050919050565b600061203f60208361252a565b915061204a82612b2b565b602082019050919050565b600061206260318361252a565b915061206d82612b54565b604082019050919050565b6000612085602c8361252a565b915061209082612ba3565b604082019050919050565b60006120a860298361252a565b91506120b382612bf2565b604082019050919050565b60006120cb602f8361252a565b91506120d682612c41565b604082019050919050565b60006120ee601a8361252a565b91506120f982612c90565b602082019050919050565b600061211160218361252a565b915061211c82612cb9565b604082019050919050565b600061213460318361252a565b915061213f82612d08565b604082019050919050565b6121538161266b565b82525050565b60006121658285611ea3565b91506121718284611ea3565b91508190509392505050565b60006020820190506121926000830184611e13565b92915050565b60006080820190506121ad6000830187611e13565b6121ba6020830186611e13565b6121c7604083018561214a565b81810360608301526121d98184611e31565b905095945050505050565b60006020820190506121f96000830184611e22565b92915050565b600060208201905081810360008301526122198184611e6a565b905092915050565b6000602082019050818103600083015261223a81611ed4565b9050919050565b6000602082019050818103600083015261225a81611ef7565b9050919050565b6000602082019050818103600083015261227a81611f1a565b9050919050565b6000602082019050818103600083015261229a81611f3d565b9050919050565b600060208201905081810360008301526122ba81611f60565b9050919050565b600060208201905081810360008301526122da81611f83565b9050919050565b600060208201905081810360008301526122fa81611fa6565b9050919050565b6000602082019050818103600083015261231a81611fc9565b9050919050565b6000602082019050818103600083015261233a81611fec565b9050919050565b6000602082019050818103600083015261235a8161200f565b9050919050565b6000602082019050818103600083015261237a81612032565b9050919050565b6000602082019050818103600083015261239a81612055565b9050919050565b600060208201905081810360008301526123ba81612078565b9050919050565b600060208201905081810360008301526123da8161209b565b9050919050565b600060208201905081810360008301526123fa816120be565b9050919050565b6000602082019050818103600083015261241a816120e1565b9050919050565b6000602082019050818103600083015261243a81612104565b9050919050565b6000602082019050818103600083015261245a81612127565b9050919050565b6000602082019050612476600083018461214a565b92915050565b6000612486612497565b905061249282826126e9565b919050565b6000604051905090565b600067ffffffffffffffff8211156124bc576124bb612821565b5b6124c582612850565b9050602081019050919050565b600067ffffffffffffffff8211156124ed576124ec612821565b5b6124f682612850565b9050602081019050919050565b600081519050919050565b600081519050919050565b600082825260208201905092915050565b600082825260208201905092915050565b600081905092915050565b60006125518261266b565b915061255c8361266b565b9250827fffffffffffffffffffffffffffffffffffffffffffffffffffffffffffffffff0382111561259157612590612794565b5b828201905092915050565b60006125a78261266b565b91506125b28361266b565b9250826125c2576125c16127c3565b5b828204905092915050565b60006125d88261266b565b91506125e38361266b565b9250828210156125f6576125f5612794565b5b828203905092915050565b600061260c8261264b565b9050919050565b60008115159050919050565b60007fffffffff0000000000000000000000000000000000000000000000000000000082169050919050565b600073ffffffffffffffffffffffffffffffffffffffff82169050919050565b6000819050919050565b82818337600083830152505050565b60005b838110156126a2578082015181840152602081019050612687565b838111156126b1576000848401525b50505050565b600060028204905060018216806126cf57607f821691505b602082108114156126e3576126e26127f2565b5b50919050565b6126f282612850565b810181811067ffffffffffffffff8211171561271157612710612821565b5b80604052505050565b60006127258261266b565b91507fffffffffffffffffffffffffffffffffffffffffffffffffffffffffffffffff82141561275857612757612794565b5b600182019050919050565b600061276e8261266b565b91506127798361266b565b925082612789576127886127c3565b5b828206905092915050565b7f4e487b7100000000000000000000000000000000000000000000000000000000600052601160045260246000fd5b7f4e487b7100000000000000000000000000000000000000000000000000000000600052601260045260246000fd5b7f4e487b7100000000000000000000000000000000000000000000000000000000600052602260045260246000fd5b7f4e487b7100000000000000000000000000000000000000000000000000000000600052604160045260246000fd5b6000601f19601f8301169050919050565b7f455243373231456e756d657261626c653a206f776e657220696e646578206f7560008201527f74206f6620626f756e6473000000000000000000000000000000000000000000602082015250565b7f4552433732313a207472616e7366657220746f206e6f6e20455243373231526560008201527f63656976657220696d706c656d656e7465720000000000000000000000000000602082015250565b7f4552433732313a20746f6b656e20616c7265616479206d696e74656400000000600082015250565b7f4552433732313a207472616e7366657220746f20746865207a65726f2061646460008201527f7265737300000000000000000000000000000000000000000000000000000000602082015250565b7f4552433732313a20617070726f766520746f2063616c6c657200000000000000600082015250565b7f4552433732313a206f70657261746f7220717565727920666f72206e6f6e657860008201527f697374656e7420746f6b656e0000000000000000000000000000000000000000602082015250565b7f4552433732313a20617070726f76652063616c6c6572206973206e6f74206f7760008201527f6e6572206e6f7220617070726f76656420666f7220616c6c0000000000000000602082015250565b7f4552433732313a2062616c616e636520717565727920666f7220746865207a6560008201527f726f206164647265737300000000000000000000000000000000000000000000602082015250565b7f4552433732313a206f776e657220717565727920666f72206e6f6e657869737460008201527f656e7420746f6b656e0000000000000000000000000000000000000000000000602082015250565b7f45524337323155524953746f726167653a2055524920736574206f66206e6f6e60008201527f6578697374656e7420746f6b656e000000000000000000000000000000000000602082015250565b7f4552433732313a206d696e7420746f20746865207a65726f2061646472657373600082015250565b7f45524337323155524953746f726167653a2055524920717565727920666f722060008201527f6e6f6e6578697374656e7420746f6b656e000000000000000000000000000000602082015250565b7f4552433732313a20617070726f76656420717565727920666f72206e6f6e657860008201527f697374656e7420746f6b656e0000000000000000000000000000000000000000602082015250565b7f4552433732313a207472616e73666572206f6620746f6b656e2074686174206960008201527f73206e6f74206f776e0000000000000000000000000000000000000000000000602082015250565b7f4552433732314d657461646174613a2055524920717565727920666f72206e6f60008201527f6e6578697374656e7420746f6b656e0000000000000000000000000000000000602082015250565b7f4e6f204d6f7265204e4654732063616e206265206d696e746564000000000000600082015250565b7f4552433732313a20617070726f76616c20746f2063757272656e74206f776e6560008201527f7200000000000000000000000000000000000000000000000000000000000000602082015250565b7f4552433732313a207472616e736665722063616c6c6572206973206e6f74206f60008201527f776e6572206e6f7220617070726f766564000000000000000000000000000000602082015250565b612d6081612601565b8114612d6b57600080fd5b50565b612d7781612613565b8114612d8257600080fd5b50565b612d8e8161261f565b8114612d9957600080fd5b50565b612da58161266b565b8114612db057600080fd5b5056fea2646970667358221220388fa4d77df74ec19c82388125b90af8ecee3b259ef5be99e60d4df2365684c464736f6c63430008040033",
  "linkReferences": {},
  "deployedLinkReferences": {}
}