{
  "_format": "hh-sol-artifact-1",
  "contractName": "MintRewardNFT",
  "sourceName": "contracts/MintRewardNFT.sol",
  "abi": [
    {
      "inputs": [],
      "stateMutability": "nonpayable",
      "type": "constructor"
    },
    {
      "anonymous": false,
      "inputs": [
        {
          "indexed": true,
          "internalType": "address",
          "name": "owner",
          "type": "address"
        },
        {
          "indexed": true,
          "internalType": "address",
          "name": "approved",
          "type": "address"
        },
        {
          "indexed": true,
          "internalType": "uint256",
          "name": "tokenId",
          "type": "uint256"
        }
      ],
      "name": "Approval",
      "type": "event"
    },
    {
      "anonymous": false,
      "inputs": [
        {
          "indexed": true,
          "internalType": "address",
          "name": "owner",
          "type": "address"
        },
        {
          "indexed": true,
          "internalType": "address",
          "name": "operator",
          "type": "address"
        },
        {
          "indexed": false,
          "internalType": "bool",
          "name": "approved",
          "type": "bool"
        }
      ],
      "name": "ApprovalForAll",
      "type": "event"
    },
    {
      "anonymous": false,
      "inputs": [
        {
          "indexed": true,
          "internalType": "address",
          "name": "from",
          "type": "address"
        },
        {
          "indexed": true,
          "internalType": "address",
          "name": "to",
          "type": "address"
        },
        {
          "indexed": true,
          "internalType": "uint256",
          "name": "tokenId",
          "type": "uint256"
        }
      ],
      "name": "Transfer",
      "type": "event"
    },
    {
      "inputs": [
        {
          "internalType": "address",
          "name": "to",
          "type": "address"
        },
        {
          "internalType": "uint256",
          "name": "tokenId",
          "type": "uint256"
        }
      ],
      "name": "approve",
      "outputs": [],
      "stateMutability": "nonpayable",
      "type": "function"
    },
    {
      "inputs": [
        {
          "internalType": "address",
          "name": "owner",
          "type": "address"
        }
      ],
      "name": "balanceOf",
      "outputs": [
        {
          "internalType": "uint256",
          "name": "",
          "type": "uint256"
        }
      ],
      "stateMutability": "view",
      "type": "function"
    },
    {
      "inputs": [],
      "name": "createToken",
      "outputs": [
        {
          "internalType": "uint256",
          "name": "",
          "type": "uint256"
        }
      ],
      "stateMutability": "nonpayable",
      "type": "function"
    },
    {
      "inputs": [
        {
          "internalType": "uint256",
          "name": "tokenId",
          "type": "uint256"
        }
      ],
      "name": "getApproved",
      "outputs": [
        {
          "internalType": "address",
          "name": "",
          "type": "address"
        }
      ],
      "stateMutability": "view",
      "type": "function"
    },
    {
      "inputs": [
        {
          "internalType": "address",
          "name": "owner",
          "type": "address"
        },
        {
          "internalType": "address",
          "name": "operator",
          "type": "address"
        }
      ],
      "name": "isApprovedForAll",
      "outputs": [
        {
          "internalType": "bool",
          "name": "",
          "type": "bool"
        }
      ],
      "stateMutability": "view",
      "type": "function"
    },
    {
      "inputs": [],
      "name": "name",
      "outputs": [
        {
          "internalType": "string",
          "name": "",
          "type": "string"
        }
      ],
      "stateMutability": "view",
      "type": "function"
    },
    {
      "inputs": [],
      "name": "owner",
      "outputs": [
        {
          "internalType": "address",
          "name": "",
          "type": "address"
        }
      ],
      "stateMutability": "view",
      "type": "function"
    },
    {
      "inputs": [
        {
          "internalType": "uint256",
          "name": "tokenId",
          "type": "uint256"
        }
      ],
      "name": "ownerOf",
      "outputs": [
        {
          "internalType": "address",
          "name": "",
          "type": "address"
        }
      ],
      "stateMutability": "view",
      "type": "function"
    },
    {
      "inputs": [
        {
          "internalType": "address",
          "name": "from",
          "type": "address"
        },
        {
          "internalType": "address",
          "name": "to",
          "type": "address"
        },
        {
          "internalType": "uint256",
          "name": "tokenId",
          "type": "uint256"
        }
      ],
      "name": "safeTransferFrom",
      "outputs": [],
      "stateMutability": "nonpayable",
      "type": "function"
    },
    {
      "inputs": [
        {
          "internalType": "address",
          "name": "from",
          "type": "address"
        },
        {
          "internalType": "address",
          "name": "to",
          "type": "address"
        },
        {
          "internalType": "uint256",
          "name": "tokenId",
          "type": "uint256"
        },
        {
          "internalType": "bytes",
          "name": "_data",
          "type": "bytes"
        }
      ],
      "name": "safeTransferFrom",
      "outputs": [],
      "stateMutability": "nonpayable",
      "type": "function"
    },
    {
      "inputs": [
        {
          "internalType": "address",
          "name": "operator",
          "type": "address"
        },
        {
          "internalType": "bool",
          "name": "approved",
          "type": "bool"
        }
      ],
      "name": "setApprovalForAll",
      "outputs": [],
      "stateMutability": "nonpayable",
      "type": "function"
    },
    {
      "inputs": [
        {
          "internalType": "bytes4",
          "name": "interfaceId",
          "type": "bytes4"
        }
      ],
      "name": "supportsInterface",
      "outputs": [
        {
          "internalType": "bool",
          "name": "",
          "type": "bool"
        }
      ],
      "stateMutability": "view",
      "type": "function"
    },
    {
      "inputs": [],
      "name": "symbol",
      "outputs": [
        {
          "internalType": "string",
          "name": "",
          "type": "string"
        }
      ],
      "stateMutability": "view",
      "type": "function"
    },
    {
      "inputs": [
        {
          "internalType": "uint256",
          "name": "tokenId",
          "type": "uint256"
        }
      ],
      "name": "tokenURI",
      "outputs": [
        {
          "internalType": "string",
          "name": "",
          "type": "string"
        }
      ],
      "stateMutability": "view",
      "type": "function"
    },
    {
      "inputs": [
        {
          "internalType": "address",
          "name": "from",
          "type": "address"
        },
        {
          "internalType": "address",
          "name": "to",
          "type": "address"
        },
        {
          "internalType": "uint256",
          "name": "tokenId",
          "type": "uint256"
        }
      ],
      "name": "transferFrom",
      "outputs": [],
      "stateMutability": "nonpayable",
      "type": "function"
    }
  ],
  "bytecode": "0x60806040523480156200001157600080fd5b506040518060400160405280600b81526020017f4861636b6572486f7573650000000000000000000000000000000000000000008152506040518060400160405280600381526020017f4848540000000000000000000000000000000000000000000000000000000000815250816000908051906020019062000096929190620000f9565b508060019080519060200190620000af929190620000f9565b50505033600860006101000a81548173ffffffffffffffffffffffffffffffffffffffff021916908373ffffffffffffffffffffffffffffffffffffffff1602179055506200020e565b8280546200010790620001a9565b90600052602060002090601f0160209004810192826200012b576000855562000177565b82601f106200014657805160ff191683800117855562000177565b8280016001018555821562000177579182015b828111156200017657825182559160200191906001019062000159565b5b5090506200018691906200018a565b5090565b5b80821115620001a55760008160009055506001016200018b565b5090565b60006002820490506001821680620001c257607f821691505b60208210811415620001d957620001d8620001df565b5b50919050565b7f4e487b7100000000000000000000000000000000000000000000000000000000600052602260045260246000fd5b612bf2806200021e6000396000f3fe608060405234801561001057600080fd5b50600436106100f55760003560e01c806370a0823111610097578063a22cb46511610066578063a22cb46514610286578063b88d4fde146102a2578063c87b56dd146102be578063e985e9c5146102ee576100f5565b806370a08231146101fc5780638da5cb5b1461022c57806395d89b411461024a5780639cbf9e3614610268576100f5565b8063095ea7b3116100d3578063095ea7b31461017857806323b872dd1461019457806342842e0e146101b05780636352211e146101cc576100f5565b806301ffc9a7146100fa57806306fdde031461012a578063081812fc14610148575b600080fd5b610114600480360381019061010f9190611c04565b61031e565b604051610121919061202d565b60405180910390f35b610132610400565b60405161013f9190612048565b60405180910390f35b610162600480360381019061015d9190611c56565b610492565b60405161016f9190611fc6565b60405180910390f35b610192600480360381019061018d9190611bc8565b610517565b005b6101ae60048036038101906101a99190611ac2565b61062f565b005b6101ca60048036038101906101c59190611ac2565b61068f565b005b6101e660048036038101906101e19190611c56565b6106af565b6040516101f39190611fc6565b60405180910390f35b61021660048036038101906102119190611a5d565b610761565b604051610223919061228a565b60405180910390f35b610234610819565b6040516102419190611fc6565b60405180910390f35b61025261083f565b60405161025f9190612048565b60405180910390f35b6102706108d1565b60405161027d919061228a565b60405180910390f35b6102a0600480360381019061029b9190611b8c565b610971565b005b6102bc60048036038101906102b79190611b11565b610987565b005b6102d860048036038101906102d39190611c56565b6109e9565b6040516102e59190612048565b60405180910390f35b61030860048036038101906103039190611a86565b610b3b565b604051610315919061202d565b60405180910390f35b60007f80ac58cd000000000000000000000000000000000000000000000000000000007bffffffffffffffffffffffffffffffffffffffffffffffffffffffff1916827bffffffffffffffffffffffffffffffffffffffffffffffffffffffff191614806103e957507f5b5e139f000000000000000000000000000000000000000000000000000000007bffffffffffffffffffffffffffffffffffffffffffffffffffffffff1916827bffffffffffffffffffffffffffffffffffffffffffffffffffffffff1916145b806103f957506103f882610bcf565b5b9050919050565b60606000805461040f906124af565b80601f016020809104026020016040519081016040528092919081815260200182805461043b906124af565b80156104885780601f1061045d57610100808354040283529160200191610488565b820191906000526020600020905b81548152906001019060200180831161046b57829003601f168201915b5050505050905090565b600061049d82610c39565b6104dc576040517f08c379a00000000000000000000000000000000000000000000000000000000081526004016104d3906121ca565b60405180910390fd5b6004600083815260200190815260200160002060009054906101000a900473ffffffffffffffffffffffffffffffffffffffff169050919050565b6000610522826106af565b90508073ffffffffffffffffffffffffffffffffffffffff168373ffffffffffffffffffffffffffffffffffffffff161415610593576040517f08c379a000000000000000000000000000000000000000000000000000000000815260040161058a9061224a565b60405180910390fd5b8073ffffffffffffffffffffffffffffffffffffffff166105b2610ca5565b73ffffffffffffffffffffffffffffffffffffffff1614806105e157506105e0816105db610ca5565b610b3b565b5b610620576040517f08c379a00000000000000000000000000000000000000000000000000000000081526004016106179061210a565b60405180910390fd5b61062a8383610cad565b505050565b61064061063a610ca5565b82610d66565b61067f576040517f08c379a00000000000000000000000000000000000000000000000000000000081526004016106769061226a565b60405180910390fd5b61068a838383610e44565b505050565b6106aa83838360405180602001604052806000815250610987565b505050565b6000806002600084815260200190815260200160002060009054906101000a900473ffffffffffffffffffffffffffffffffffffffff169050600073ffffffffffffffffffffffffffffffffffffffff168173ffffffffffffffffffffffffffffffffffffffff161415610758576040517f08c379a000000000000000000000000000000000000000000000000000000000815260040161074f9061214a565b60405180910390fd5b80915050919050565b60008073ffffffffffffffffffffffffffffffffffffffff168273ffffffffffffffffffffffffffffffffffffffff1614156107d2576040517f08c379a00000000000000000000000000000000000000000000000000000000081526004016107c99061212a565b60405180910390fd5b600360008373ffffffffffffffffffffffffffffffffffffffff1673ffffffffffffffffffffffffffffffffffffffff168152602001908152602001600020549050919050565b600860009054906101000a900473ffffffffffffffffffffffffffffffffffffffff1681565b60606001805461084e906124af565b80601f016020809104026020016040519081016040528092919081815260200182805461087a906124af565b80156108c75780601f1061089c576101008083540402835291602001916108c7565b820191906000526020600020905b8154815290600101906020018083116108aa57829003601f168201915b5050505050905090565b60006127106108e060076110a0565b10610920576040517f08c379a00000000000000000000000000000000000000000000000000000000081526004016109179061222a565b60405180910390fd5b61092a60076110ae565b600061093660076110a0565b90506000604051806080016040528060608152602001612b5d60609139905061095f33836110c4565b6109698282611292565b819250505090565b61098361097c610ca5565b8383611306565b5050565b610998610992610ca5565b83610d66565b6109d7576040517f08c379a00000000000000000000000000000000000000000000000000000000081526004016109ce9061226a565b60405180910390fd5b6109e384848484611473565b50505050565b60606109f482610c39565b610a33576040517f08c379a0000000000000000000000000000000000000000000000000000000008152600401610a2a906121aa565b60405180910390fd5b6000600660008481526020019081526020016000208054610a53906124af565b80601f0160208091040260200160405190810160405280929190818152602001828054610a7f906124af565b8015610acc5780601f10610aa157610100808354040283529160200191610acc565b820191906000526020600020905b815481529060010190602001808311610aaf57829003601f168201915b505050505090506000610add6114cf565b9050600081511415610af3578192505050610b36565b600082511115610b28578082604051602001610b10929190611fa2565b60405160208183030381529060405292505050610b36565b610b31846114e6565b925050505b919050565b6000600560008473ffffffffffffffffffffffffffffffffffffffff1673ffffffffffffffffffffffffffffffffffffffff16815260200190815260200160002060008373ffffffffffffffffffffffffffffffffffffffff1673ffffffffffffffffffffffffffffffffffffffff16815260200190815260200160002060009054906101000a900460ff16905092915050565b60007f01ffc9a7000000000000000000000000000000000000000000000000000000007bffffffffffffffffffffffffffffffffffffffffffffffffffffffff1916827bffffffffffffffffffffffffffffffffffffffffffffffffffffffff1916149050919050565b60008073ffffffffffffffffffffffffffffffffffffffff166002600084815260200190815260200160002060009054906101000a900473ffffffffffffffffffffffffffffffffffffffff1673ffffffffffffffffffffffffffffffffffffffff1614159050919050565b600033905090565b816004600083815260200190815260200160002060006101000a81548173ffffffffffffffffffffffffffffffffffffffff021916908373ffffffffffffffffffffffffffffffffffffffff160217905550808273ffffffffffffffffffffffffffffffffffffffff16610d20836106af565b73ffffffffffffffffffffffffffffffffffffffff167f8c5be1e5ebec7d5bd14f71427d1e84f3dd0314c0f7b2291e5b200ac8c7c3b92560405160405180910390a45050565b6000610d7182610c39565b610db0576040517f08c379a0000000000000000000000000000000000000000000000000000000008152600401610da7906120ea565b60405180910390fd5b6000610dbb836106af565b90508073ffffffffffffffffffffffffffffffffffffffff168473ffffffffffffffffffffffffffffffffffffffff161480610e2a57508373ffffffffffffffffffffffffffffffffffffffff16610e1284610492565b73ffffffffffffffffffffffffffffffffffffffff16145b80610e3b5750610e3a8185610b3b565b5b91505092915050565b8273ffffffffffffffffffffffffffffffffffffffff16610e64826106af565b73ffffffffffffffffffffffffffffffffffffffff1614610eba576040517f08c379a0000000000000000000000000000000000000000000000000000000008152600401610eb1906121ea565b60405180910390fd5b600073ffffffffffffffffffffffffffffffffffffffff168273ffffffffffffffffffffffffffffffffffffffff161415610f2a576040517f08c379a0000000000000000000000000000000000000000000000000000000008152600401610f21906120aa565b60405180910390fd5b610f3583838361158d565b610f40600082610cad565b6001600360008573ffffffffffffffffffffffffffffffffffffffff1673ffffffffffffffffffffffffffffffffffffffff1681526020019081526020016000206000828254610f9091906123c5565b925050819055506001600360008473ffffffffffffffffffffffffffffffffffffffff1673ffffffffffffffffffffffffffffffffffffffff1681526020019081526020016000206000828254610fe7919061233e565b92505081905550816002600083815260200190815260200160002060006101000a81548173ffffffffffffffffffffffffffffffffffffffff021916908373ffffffffffffffffffffffffffffffffffffffff160217905550808273ffffffffffffffffffffffffffffffffffffffff168473ffffffffffffffffffffffffffffffffffffffff167fddf252ad1be2c89b69c2b068fc378daa952ba7f163c4a11628f55a4df523b3ef60405160405180910390a4505050565b600081600001549050919050565b6001816000016000828254019250508190555050565b600073ffffffffffffffffffffffffffffffffffffffff168273ffffffffffffffffffffffffffffffffffffffff161415611134576040517f08c379a000000000000000000000000000000000000000000000000000000000815260040161112b9061218a565b60405180910390fd5b61113d81610c39565b1561117d576040517f08c379a00000000000000000000000000000000000000000000000000000000081526004016111749061208a565b60405180910390fd5b6111896000838361158d565b6001600360008473ffffffffffffffffffffffffffffffffffffffff1673ffffffffffffffffffffffffffffffffffffffff16815260200190815260200160002060008282546111d9919061233e565b92505081905550816002600083815260200190815260200160002060006101000a81548173ffffffffffffffffffffffffffffffffffffffff021916908373ffffffffffffffffffffffffffffffffffffffff160217905550808273ffffffffffffffffffffffffffffffffffffffff16600073ffffffffffffffffffffffffffffffffffffffff167fddf252ad1be2c89b69c2b068fc378daa952ba7f163c4a11628f55a4df523b3ef60405160405180910390a45050565b61129b82610c39565b6112da576040517f08c379a00000000000000000000000000000000000000000000000000000000081526004016112d19061216a565b60405180910390fd5b806006600084815260200190815260200160002090805190602001906113019291906118e9565b505050565b8173ffffffffffffffffffffffffffffffffffffffff168373ffffffffffffffffffffffffffffffffffffffff161415611375576040517f08c379a000000000000000000000000000000000000000000000000000000000815260040161136c906120ca565b60405180910390fd5b80600560008573ffffffffffffffffffffffffffffffffffffffff1673ffffffffffffffffffffffffffffffffffffffff16815260200190815260200160002060008473ffffffffffffffffffffffffffffffffffffffff1673ffffffffffffffffffffffffffffffffffffffff16815260200190815260200160002060006101000a81548160ff0219169083151502179055508173ffffffffffffffffffffffffffffffffffffffff168373ffffffffffffffffffffffffffffffffffffffff167f17307eab39ab6107e8899845ad3d59bd9653f200f220920489ca2b5937696c3183604051611466919061202d565b60405180910390a3505050565b61147e848484610e44565b61148a84848484611592565b6114c9576040517f08c379a00000000000000000000000000000000000000000000000000000000081526004016114c09061206a565b60405180910390fd5b50505050565b606060405180602001604052806000815250905090565b60606114f182610c39565b611530576040517f08c379a00000000000000000000000000000000000000000000000000000000081526004016115279061220a565b60405180910390fd5b600061153a6114cf565b9050600081511161155a5760405180602001604052806000815250611585565b8061156484611729565b604051602001611575929190611fa2565b6040516020818303038152906040525b915050919050565b505050565b60006115b38473ffffffffffffffffffffffffffffffffffffffff166118d6565b1561171c578373ffffffffffffffffffffffffffffffffffffffff1663150b7a026115dc610ca5565b8786866040518563ffffffff1660e01b81526004016115fe9493929190611fe1565b602060405180830381600087803b15801561161857600080fd5b505af192505050801561164957506040513d601f19601f820116820180604052508101906116469190611c2d565b60015b6116cc573d8060008114611679576040519150601f19603f3d011682016040523d82523d6000602084013e61167e565b606091505b506000815114156116c4576040517f08c379a00000000000000000000000000000000000000000000000000000000081526004016116bb9061206a565b60405180910390fd5b805181602001fd5b63150b7a0260e01b7bffffffffffffffffffffffffffffffffffffffffffffffffffffffff1916817bffffffffffffffffffffffffffffffffffffffffffffffffffffffff191614915050611721565b600190505b949350505050565b60606000821415611771576040518060400160405280600181526020017f300000000000000000000000000000000000000000000000000000000000000081525090506118d1565b600082905060005b600082146117a357808061178c90612512565b915050600a8261179c9190612394565b9150611779565b60008167ffffffffffffffff8111156117e5577f4e487b7100000000000000000000000000000000000000000000000000000000600052604160045260246000fd5b6040519080825280601f01601f1916602001820160405280156118175781602001600182028036833780820191505090505b5090505b600085146118ca5760018261183091906123c5565b9150600a8561183f919061255b565b603061184b919061233e565b60f81b818381518110611887577f4e487b7100000000000000000000000000000000000000000000000000000000600052603260045260246000fd5b60200101907effffffffffffffffffffffffffffffffffffffffffffffffffffffffffffff1916908160001a905350600a856118c39190612394565b945061181b565b8093505050505b919050565b600080823b905060008111915050919050565b8280546118f5906124af565b90600052602060002090601f016020900481019282611917576000855561195e565b82601f1061193057805160ff191683800117855561195e565b8280016001018555821561195e579182015b8281111561195d578251825591602001919060010190611942565b5b50905061196b919061196f565b5090565b5b80821115611988576000816000905550600101611970565b5090565b600061199f61199a846122ca565b6122a5565b9050828152602081018484840111156119b757600080fd5b6119c284828561246d565b509392505050565b6000813590506119d981612b00565b92915050565b6000813590506119ee81612b17565b92915050565b600081359050611a0381612b2e565b92915050565b600081519050611a1881612b2e565b92915050565b600082601f830112611a2f57600080fd5b8135611a3f84826020860161198c565b91505092915050565b600081359050611a5781612b45565b92915050565b600060208284031215611a6f57600080fd5b6000611a7d848285016119ca565b91505092915050565b60008060408385031215611a9957600080fd5b6000611aa7858286016119ca565b9250506020611ab8858286016119ca565b9150509250929050565b600080600060608486031215611ad757600080fd5b6000611ae5868287016119ca565b9350506020611af6868287016119ca565b9250506040611b0786828701611a48565b9150509250925092565b60008060008060808587031215611b2757600080fd5b6000611b35878288016119ca565b9450506020611b46878288016119ca565b9350506040611b5787828801611a48565b925050606085013567ffffffffffffffff811115611b7457600080fd5b611b8087828801611a1e565b91505092959194509250565b60008060408385031215611b9f57600080fd5b6000611bad858286016119ca565b9250506020611bbe858286016119df565b9150509250929050565b60008060408385031215611bdb57600080fd5b6000611be9858286016119ca565b9250506020611bfa85828601611a48565b9150509250929050565b600060208284031215611c1657600080fd5b6000611c24848285016119f4565b91505092915050565b600060208284031215611c3f57600080fd5b6000611c4d84828501611a09565b91505092915050565b600060208284031215611c6857600080fd5b6000611c7684828501611a48565b91505092915050565b611c88816123f9565b82525050565b611c978161240b565b82525050565b6000611ca8826122fb565b611cb28185612311565b9350611cc281856020860161247c565b611ccb81612648565b840191505092915050565b6000611ce182612306565b611ceb8185612322565b9350611cfb81856020860161247c565b611d0481612648565b840191505092915050565b6000611d1a82612306565b611d248185612333565b9350611d3481856020860161247c565b80840191505092915050565b6000611d4d603283612322565b9150611d5882612659565b604082019050919050565b6000611d70601c83612322565b9150611d7b826126a8565b602082019050919050565b6000611d93602483612322565b9150611d9e826126d1565b604082019050919050565b6000611db6601983612322565b9150611dc182612720565b602082019050919050565b6000611dd9602c83612322565b9150611de482612749565b604082019050919050565b6000611dfc603883612322565b9150611e0782612798565b604082019050919050565b6000611e1f602a83612322565b9150611e2a826127e7565b604082019050919050565b6000611e42602983612322565b9150611e4d82612836565b604082019050919050565b6000611e65602e83612322565b9150611e7082612885565b604082019050919050565b6000611e88602083612322565b9150611e93826128d4565b602082019050919050565b6000611eab603183612322565b9150611eb6826128fd565b604082019050919050565b6000611ece602c83612322565b9150611ed98261294c565b604082019050919050565b6000611ef1602983612322565b9150611efc8261299b565b604082019050919050565b6000611f14602f83612322565b9150611f1f826129ea565b604082019050919050565b6000611f37601a83612322565b9150611f4282612a39565b602082019050919050565b6000611f5a602183612322565b9150611f6582612a62565b604082019050919050565b6000611f7d603183612322565b9150611f8882612ab1565b604082019050919050565b611f9c81612463565b82525050565b6000611fae8285611d0f565b9150611fba8284611d0f565b91508190509392505050565b6000602082019050611fdb6000830184611c7f565b92915050565b6000608082019050611ff66000830187611c7f565b6120036020830186611c7f565b6120106040830185611f93565b81810360608301526120228184611c9d565b905095945050505050565b60006020820190506120426000830184611c8e565b92915050565b600060208201905081810360008301526120628184611cd6565b905092915050565b6000602082019050818103600083015261208381611d40565b9050919050565b600060208201905081810360008301526120a381611d63565b9050919050565b600060208201905081810360008301526120c381611d86565b9050919050565b600060208201905081810360008301526120e381611da9565b9050919050565b6000602082019050818103600083015261210381611dcc565b9050919050565b6000602082019050818103600083015261212381611def565b9050919050565b6000602082019050818103600083015261214381611e12565b9050919050565b6000602082019050818103600083015261216381611e35565b9050919050565b6000602082019050818103600083015261218381611e58565b9050919050565b600060208201905081810360008301526121a381611e7b565b9050919050565b600060208201905081810360008301526121c381611e9e565b9050919050565b600060208201905081810360008301526121e381611ec1565b9050919050565b6000602082019050818103600083015261220381611ee4565b9050919050565b6000602082019050818103600083015261222381611f07565b9050919050565b6000602082019050818103600083015261224381611f2a565b9050919050565b6000602082019050818103600083015261226381611f4d565b9050919050565b6000602082019050818103600083015261228381611f70565b9050919050565b600060208201905061229f6000830184611f93565b92915050565b60006122af6122c0565b90506122bb82826124e1565b919050565b6000604051905090565b600067ffffffffffffffff8211156122e5576122e4612619565b5b6122ee82612648565b9050602081019050919050565b600081519050919050565b600081519050919050565b600082825260208201905092915050565b600082825260208201905092915050565b600081905092915050565b600061234982612463565b915061235483612463565b9250827fffffffffffffffffffffffffffffffffffffffffffffffffffffffffffffffff038211156123895761238861258c565b5b828201905092915050565b600061239f82612463565b91506123aa83612463565b9250826123ba576123b96125bb565b5b828204905092915050565b60006123d082612463565b91506123db83612463565b9250828210156123ee576123ed61258c565b5b828203905092915050565b600061240482612443565b9050919050565b60008115159050919050565b60007fffffffff0000000000000000000000000000000000000000000000000000000082169050919050565b600073ffffffffffffffffffffffffffffffffffffffff82169050919050565b6000819050919050565b82818337600083830152505050565b60005b8381101561249a57808201518184015260208101905061247f565b838111156124a9576000848401525b50505050565b600060028204905060018216806124c757607f821691505b602082108114156124db576124da6125ea565b5b50919050565b6124ea82612648565b810181811067ffffffffffffffff8211171561250957612508612619565b5b80604052505050565b600061251d82612463565b91507fffffffffffffffffffffffffffffffffffffffffffffffffffffffffffffffff8214156125505761254f61258c565b5b600182019050919050565b600061256682612463565b915061257183612463565b925082612581576125806125bb565b5b828206905092915050565b7f4e487b7100000000000000000000000000000000000000000000000000000000600052601160045260246000fd5b7f4e487b7100000000000000000000000000000000000000000000000000000000600052601260045260246000fd5b7f4e487b7100000000000000000000000000000000000000000000000000000000600052602260045260246000fd5b7f4e487b7100000000000000000000000000000000000000000000000000000000600052604160045260246000fd5b6000601f19601f8301169050919050565b7f4552433732313a207472616e7366657220746f206e6f6e20455243373231526560008201527f63656976657220696d706c656d656e7465720000000000000000000000000000602082015250565b7f4552433732313a20746f6b656e20616c7265616479206d696e74656400000000600082015250565b7f4552433732313a207472616e7366657220746f20746865207a65726f2061646460008201527f7265737300000000000000000000000000000000000000000000000000000000602082015250565b7f4552433732313a20617070726f766520746f2063616c6c657200000000000000600082015250565b7f4552433732313a206f70657261746f7220717565727920666f72206e6f6e657860008201527f697374656e7420746f6b656e0000000000000000000000000000000000000000602082015250565b7f4552433732313a20617070726f76652063616c6c6572206973206e6f74206f7760008201527f6e6572206e6f7220617070726f76656420666f7220616c6c0000000000000000602082015250565b7f4552433732313a2062616c616e636520717565727920666f7220746865207a6560008201527f726f206164647265737300000000000000000000000000000000000000000000602082015250565b7f4552433732313a206f776e657220717565727920666f72206e6f6e657869737460008201527f656e7420746f6b656e0000000000000000000000000000000000000000000000602082015250565b7f45524337323155524953746f726167653a2055524920736574206f66206e6f6e60008201527f6578697374656e7420746f6b656e000000000000000000000000000000000000602082015250565b7f4552433732313a206d696e7420746f20746865207a65726f2061646472657373600082015250565b7f45524337323155524953746f726167653a2055524920717565727920666f722060008201527f6e6f6e6578697374656e7420746f6b656e000000000000000000000000000000602082015250565b7f4552433732313a20617070726f76656420717565727920666f72206e6f6e657860008201527f697374656e7420746f6b656e0000000000000000000000000000000000000000602082015250565b7f4552433732313a207472616e73666572206f6620746f6b656e2074686174206960008201527f73206e6f74206f776e0000000000000000000000000000000000000000000000602082015250565b7f4552433732314d657461646174613a2055524920717565727920666f72206e6f60008201527f6e6578697374656e7420746f6b656e0000000000000000000000000000000000602082015250565b7f4e6f204d6f7265204e4654732063616e206265206d696e746564000000000000600082015250565b7f4552433732313a20617070726f76616c20746f2063757272656e74206f776e6560008201527f7200000000000000000000000000000000000000000000000000000000000000602082015250565b7f4552433732313a207472616e736665722063616c6c6572206973206e6f74206f60008201527f776e6572206e6f7220617070726f766564000000000000000000000000000000602082015250565b612b09816123f9565b8114612b1457600080fd5b50565b612b208161240b565b8114612b2b57600080fd5b50565b612b3781612417565b8114612b4257600080fd5b50565b612b4e81612463565b8114612b5957600080fd5b5056fe68747470733a2f2f697066732e6d6f72616c69732e696f3a323035332f697066732f516d544246726d657865414862424d67724438314e5852726574444175394d486a356d6671573872446d357373662f6d657461646174612f322e6a736f6ea264697066735822122015cf677bf0ba6edd0733863ac25a0fcdca61b1ce3311b564d35fd042dd7a121c64736f6c63430008040033",
  "linkReferences": {},
  "deployedLinkReferences": {}
}